{
  "contractName": "Counter",
  "abi": [
    {
      "inputs": [],
      "payable": false,
      "stateMutability": "nonpayable",
      "type": "constructor",
      "signature": "constructor"
    },
    {
      "constant": true,
      "inputs": [],
      "name": "get",
      "outputs": [
        {
          "name": "",
          "type": "int256"
        }
      ],
      "payable": false,
      "stateMutability": "view",
      "type": "function",
      "signature": "0x6d4ce63c"
    },
    {
      "constant": false,
      "inputs": [
        {
          "name": "n",
          "type": "int256"
        }
      ],
      "name": "initialize",
      "outputs": [],
      "payable": false,
      "stateMutability": "nonpayable",
      "type": "function",
      "signature": "0x59664f34"
    },
    {
      "constant": false,
      "inputs": [
        {
          "name": "n",
          "type": "int256"
        }
      ],
      "name": "increment",
      "outputs": [],
      "payable": false,
      "stateMutability": "nonpayable",
      "type": "function",
      "signature": "0xc03c3003"
    },
    {
      "constant": false,
      "inputs": [
        {
          "name": "n",
          "type": "int256"
        }
      ],
      "name": "decrement",
      "outputs": [],
      "payable": false,
      "stateMutability": "nonpayable",
      "type": "function",
      "signature": "0xdb7dd6b5"
    }
  ],
  "bytecode": "0x608060405234801561001057600080fd5b50600080819055506102db806100276000396000f3fe608060405234801561001057600080fd5b5060043610610069576000357c01000000000000000000000000000000000000000000000000000000009004806359664f341461006e5780636d4ce63c1461009c578063c03c3003146100ba578063db7dd6b5146100e8575b600080fd5b61009a6004803603602081101561008457600080fd5b8101908080359060200190929190505050610116565b005b6100a4610120565b6040518082815260200191505060405180910390f35b6100e6600480360360208110156100d057600080fd5b8101908080359060200190929190505050610129565b005b610114600480360360208110156100fe57600080fd5b81019080803590602001909291905050506101af565b005b8060008190555050565b60008054905090565b80600081136101a0576040517f08c379a00000000000000000000000000000000000000000000000000000000081526004018080602001828103825260208152602001807f56616c7565206d7573742062652067726561746572207468616e207a65726f2e81525060200191505060405180910390fd5b81600054016000819055505050565b8060008113610226576040517f08c379a00000000000000000000000000000000000000000000000000000000081526004018080602001828103825260208152602001807f56616c7565206d7573742062652067726561746572207468616e207a65726f2e81525060200191505060405180910390fd5b8180600054121561029f576040517f08c379a00000000000000000000000000000000000000000000000000000000081526004018080602001828103825260208152602001807f436f756e7465722063616e206e6f74206265636f6d65206e656761746976652e81525060200191505060405180910390fd5b826000540360008190555050505056fea165627a7a7230582031463c094182f50cedda5e83e2364b0f2eecabb59243a7e6b495df76c1d2b19c0029",
  "source": "pragma solidity ^0.5.8;\r\n// Imagine a big integer counter that the whole world could share\r\ncontract Counter {\r\n  int value;\r\n\r\n  constructor() public{\r\n    value = 0;\r\n  }\r\n\r\n  modifier checkIfLessThanCounter(int n){\r\n    require (value >= n, 'Counter can not become negative.');\r\n    _;\r\n  }\r\n\r\n  modifier checkIfLessThanZero(int n){\r\n    require (n > 0, 'Value must be greater than zero.');\r\n    _;\r\n  }\r\n\r\n  function get() view public returns (int){\r\n    return value;\r\n  }\r\n\r\n  function initialize (int n) public{\r\n    value = n;\r\n  }\r\n\r\n  function increment (int n) public checkIfLessThanZero(n){\r\n    value = value + n;\r\n  }\r\n\r\n  function decrement (int n) public checkIfLessThanZero(n) checkIfLessThanCounter(n){\r\n    value = value - n;\r\n  }\r\n}\r\n",
  "sourcePath": "/Users/dkishan/Desktop/ThirdSemUB/work/counter-dapp/counter-contract/contracts/Counter.sol",
  "compiler": {
    "name": "solc",
    "version": "0.5.8+commit.23d335f2.Emscripten.clang"
  },
  "schemaVersion": "3.0.6",
  "updatedAt": "2019-09-23T05:55:30.037Z",
  "devdoc": {
    "methods": {}
  },
  "userdoc": {
    "methods": {}
  }
}